{
  "_format": "hh-sol-artifact-1",
  "contractName": "MedSecure",
  "sourceName": "contracts/MedSecure.sol",
  "abi": [
    {
      "inputs": [],
      "stateMutability": "nonpayable",
      "type": "constructor"
    },
    {
      "anonymous": false,
      "inputs": [
        {
          "indexed": false,
          "internalType": "string",
          "name": "name",
          "type": "string"
        }
      ],
      "name": "CategoryAdded",
      "type": "event"
    },
    {
      "anonymous": false,
      "inputs": [
        {
          "indexed": false,
          "internalType": "string",
          "name": "name",
          "type": "string"
        },
        {
          "indexed": false,
          "internalType": "uint256",
          "name": "uniqueId",
          "type": "uint256"
        }
      ],
      "name": "DoctorAdded",
      "type": "event"
    },
    {
      "anonymous": false,
      "inputs": [
        {
          "indexed": false,
          "internalType": "string",
          "name": "doctorName",
          "type": "string"
        },
        {
          "indexed": false,
          "internalType": "uint256",
          "name": "doctorUniqueId",
          "type": "uint256"
        },
        {
          "indexed": false,
          "internalType": "string",
          "name": "patientName",
          "type": "string"
        },
        {
          "indexed": false,
          "internalType": "uint256",
          "name": "patientUniqueId",
          "type": "uint256"
        }
      ],
      "name": "DoctorPatientBooked",
      "type": "event"
    },
    {
      "anonymous": false,
      "inputs": [
        {
          "indexed": false,
          "internalType": "uint256",
          "name": "uniqueId",
          "type": "uint256"
        }
      ],
      "name": "DoctorRemoved",
      "type": "event"
    },
    {
      "anonymous": false,
      "inputs": [
        {
          "indexed": false,
          "internalType": "uint256",
          "name": "patientId",
          "type": "uint256"
        },
        {
          "indexed": false,
          "internalType": "uint256",
          "name": "rating",
          "type": "uint256"
        },
        {
          "indexed": false,
          "internalType": "string",
          "name": "comments",
          "type": "string"
        }
      ],
      "name": "DoctorReview",
      "type": "event"
    },
    {
      "anonymous": false,
      "inputs": [
        {
          "indexed": false,
          "internalType": "uint256",
          "name": "patientId",
          "type": "uint256"
        },
        {
          "indexed": false,
          "internalType": "string",
          "name": "medicalReportHash",
          "type": "string"
        }
      ],
      "name": "MedicalReportSent",
      "type": "event"
    },
    {
      "anonymous": false,
      "inputs": [
        {
          "indexed": false,
          "internalType": "string",
          "name": "name",
          "type": "string"
        },
        {
          "indexed": false,
          "internalType": "address",
          "name": "wallet",
          "type": "address"
        },
        {
          "indexed": false,
          "internalType": "uint256",
          "name": "startTime",
          "type": "uint256"
        },
        {
          "indexed": false,
          "internalType": "uint256",
          "name": "endTime",
          "type": "uint256"
        },
        {
          "indexed": false,
          "internalType": "uint256",
          "name": "uniqueId",
          "type": "uint256"
        },
        {
          "indexed": false,
          "internalType": "string",
          "name": "status",
          "type": "string"
        }
      ],
      "name": "PatientDetails",
      "type": "event"
    },
    {
      "anonymous": false,
      "inputs": [
        {
          "indexed": false,
          "internalType": "uint256",
          "name": "patientId",
          "type": "uint256"
        },
        {
          "indexed": false,
          "internalType": "string",
          "name": "status",
          "type": "string"
        }
      ],
      "name": "PatientStatusChanged",
      "type": "event"
    },
    {
      "inputs": [
        {
          "internalType": "string",
          "name": "categoryName",
          "type": "string"
        }
      ],
      "name": "addCategory",
      "outputs": [],
      "stateMutability": "nonpayable",
      "type": "function"
    },
    {
      "inputs": [
        {
          "internalType": "string",
          "name": "doctorName",
          "type": "string"
        },
        {
          "internalType": "string",
          "name": "category",
          "type": "string"
        },
        {
          "internalType": "address",
          "name": "doctorWallet",
          "type": "address"
        },
        {
          "internalType": "uint256",
          "name": "doctorFees",
          "type": "uint256"
        },
        {
          "internalType": "string",
          "name": "registrationNo",
          "type": "string"
        },
        {
          "internalType": "uint256",
          "name": "registrationYear",
          "type": "uint256"
        },
        {
          "internalType": "string",
          "name": "degreeName",
          "type": "string"
        },
        {
          "internalType": "string",
          "name": "medicalCouncilName",
          "type": "string"
        }
      ],
      "name": "addDoctor",
      "outputs": [],
      "stateMutability": "nonpayable",
      "type": "function"
    },
    {
      "inputs": [
        {
          "internalType": "uint256",
          "name": "doctorId",
          "type": "uint256"
        },
        {
          "internalType": "string",
          "name": "patientName",
          "type": "string"
        },
        {
          "internalType": "address",
          "name": "patientWallet",
          "type": "address"
        },
        {
          "internalType": "string",
          "name": "ipfsHash",
          "type": "string"
        }
      ],
      "name": "bookDoctor",
      "outputs": [],
      "stateMutability": "payable",
      "type": "function"
    },
    {
      "inputs": [
        {
          "internalType": "uint256",
          "name": "patientId",
          "type": "uint256"
        },
        {
          "internalType": "string",
          "name": "status",
          "type": "string"
        }
      ],
      "name": "changeStatus",
      "outputs": [],
      "stateMutability": "nonpayable",
      "type": "function"
    },
    {
      "inputs": [],
      "name": "getAllCategories",
      "outputs": [
        {
          "components": [
            {
              "internalType": "string",
              "name": "name",
              "type": "string"
            }
          ],
          "internalType": "struct MedSecure.Category[]",
          "name": "",
          "type": "tuple[]"
        }
      ],
      "stateMutability": "view",
      "type": "function"
    },
    {
      "inputs": [],
      "name": "getAllDoctors",
      "outputs": [
        {
          "components": [
            {
              "internalType": "string",
              "name": "name",
              "type": "string"
            },
            {
              "internalType": "string",
              "name": "category",
              "type": "string"
            },
            {
              "internalType": "address",
              "name": "wallet",
              "type": "address"
            },
            {
              "internalType": "uint256",
              "name": "fees",
              "type": "uint256"
            },
            {
              "internalType": "string",
              "name": "comment",
              "type": "string"
            },
            {
              "internalType": "uint256",
              "name": "uniqueId",
              "type": "uint256"
            },
            {
              "internalType": "string",
              "name": "registrationNo",
              "type": "string"
            },
            {
              "internalType": "uint256",
              "name": "registrationYear",
              "type": "uint256"
            },
            {
              "internalType": "string",
              "name": "degreeName",
              "type": "string"
            },
            {
              "internalType": "string",
              "name": "medicalCouncilName",
              "type": "string"
            }
          ],
          "internalType": "struct MedSecure.Doctor[]",
          "name": "",
          "type": "tuple[]"
        }
      ],
      "stateMutability": "view",
      "type": "function"
    },
    {
      "inputs": [
        {
          "internalType": "string",
          "name": "category",
          "type": "string"
        }
      ],
      "name": "getAllDoctorsInCategory",
      "outputs": [
        {
          "components": [
            {
              "internalType": "string",
              "name": "name",
              "type": "string"
            },
            {
              "internalType": "string",
              "name": "category",
              "type": "string"
            },
            {
              "internalType": "address",
              "name": "wallet",
              "type": "address"
            },
            {
              "internalType": "uint256",
              "name": "fees",
              "type": "uint256"
            },
            {
              "internalType": "string",
              "name": "comment",
              "type": "string"
            },
            {
              "internalType": "uint256",
              "name": "uniqueId",
              "type": "uint256"
            },
            {
              "internalType": "string",
              "name": "registrationNo",
              "type": "string"
            },
            {
              "internalType": "uint256",
              "name": "registrationYear",
              "type": "uint256"
            },
            {
              "internalType": "string",
              "name": "degreeName",
              "type": "string"
            },
            {
              "internalType": "string",
              "name": "medicalCouncilName",
              "type": "string"
            }
          ],
          "internalType": "struct MedSecure.Doctor[]",
          "name": "",
          "type": "tuple[]"
        }
      ],
      "stateMutability": "view",
      "type": "function"
    },
    {
      "inputs": [
        {
          "internalType": "uint256",
          "name": "doctorId",
          "type": "uint256"
        }
      ],
      "name": "getDoctorDetails",
      "outputs": [
        {
          "internalType": "string",
          "name": "",
          "type": "string"
        },
        {
          "internalType": "string",
          "name": "",
          "type": "string"
        },
        {
          "internalType": "address",
          "name": "",
          "type": "address"
        },
        {
          "internalType": "uint256",
          "name": "",
          "type": "uint256"
        },
        {
          "internalType": "string",
          "name": "",
          "type": "string"
        },
        {
          "internalType": "string",
          "name": "",
          "type": "string"
        },
        {
          "internalType": "uint256",
          "name": "",
          "type": "uint256"
        },
        {
          "internalType": "string",
          "name": "",
          "type": "string"
        },
        {
          "internalType": "string",
          "name": "",
          "type": "string"
        }
      ],
      "stateMutability": "view",
      "type": "function"
    },
    {
      "inputs": [
        {
          "internalType": "string",
          "name": "doctorName",
          "type": "string"
        }
      ],
      "name": "getDoctorReview",
      "outputs": [
        {
          "internalType": "string",
          "name": "",
          "type": "string"
        }
      ],
      "stateMutability": "view",
      "type": "function"
    },
    {
      "inputs": [],
      "name": "getOwnerAddress",
      "outputs": [
        {
          "internalType": "address",
          "name": "",
          "type": "address"
        }
      ],
      "stateMutability": "view",
      "type": "function"
    },
    {
      "inputs": [
        {
          "internalType": "uint256",
          "name": "patientId",
          "type": "uint256"
        },
        {
          "internalType": "address",
          "name": "patientWallet",
          "type": "address"
        }
      ],
      "name": "getPatientInfo",
      "outputs": [
        {
          "internalType": "string",
          "name": "name",
          "type": "string"
        },
        {
          "internalType": "uint256",
          "name": "startTime",
          "type": "uint256"
        },
        {
          "internalType": "uint256",
          "name": "endTime",
          "type": "uint256"
        },
        {
          "internalType": "uint256",
          "name": "uniqueId",
          "type": "uint256"
        },
        {
          "internalType": "string",
          "name": "status",
          "type": "string"
        },
        {
          "internalType": "string",
          "name": "ipfsHash",
          "type": "string"
        },
        {
          "internalType": "uint256",
          "name": "doctorUniqueId",
          "type": "uint256"
        },
        {
          "internalType": "string",
          "name": "doctorName",
          "type": "string"
        },
        {
          "internalType": "string",
          "name": "doctorCategory",
          "type": "string"
        },
        {
          "internalType": "address",
          "name": "doctorWallet",
          "type": "address"
        },
        {
          "internalType": "string",
          "name": "doctorRegistrationNo",
          "type": "string"
        }
      ],
      "stateMutability": "view",
      "type": "function"
    },
    {
      "inputs": [
        {
          "internalType": "uint256",
          "name": "doctorId",
          "type": "uint256"
        },
        {
          "internalType": "uint256",
          "name": "patientId",
          "type": "uint256"
        },
        {
          "internalType": "uint256",
          "name": "rating",
          "type": "uint256"
        },
        {
          "internalType": "string",
          "name": "comments",
          "type": "string"
        }
      ],
      "name": "giveDoctorReview",
      "outputs": [],
      "stateMutability": "nonpayable",
      "type": "function"
    },
    {
      "inputs": [
        {
          "internalType": "uint256",
          "name": "doctorId",
          "type": "uint256"
        }
      ],
      "name": "removeDoctor",
      "outputs": [],
      "stateMutability": "nonpayable",
      "type": "function"
    },
    {
      "inputs": [
        {
          "internalType": "uint256",
          "name": "patientId",
          "type": "uint256"
        },
        {
          "internalType": "string",
          "name": "medicalReportHash",
          "type": "string"
        }
      ],
      "name": "sendMedicalReport",
      "outputs": [],
      "stateMutability": "nonpayable",
      "type": "function"
    }
  ],
  "bytecode": "0x608060405234801561001057600080fd5b50600680546001600160a01b0319163317905561327e806100326000396000f3fe6080604052600436106100dd5760003560e01c80637118b4bb1161007f5780638fd8cf5c116100595780638fd8cf5c14610253578063a086c98a1461028a578063dadd0a57146102aa578063f0d95090146102cc57600080fd5b80637118b4bb146101e6578063811f02f7146102135780638bd06fc31461023357600080fd5b80633b6d5b8c116100bb5780633b6d5b8c146101445780634558593e1461017957806353ae3c56146101995780635925eaae146101b957600080fd5b80630c4f65bd146100e25780632e0dcbf71461010f57806331c5197814610131575b600080fd5b3480156100ee57600080fd5b506006546040516001600160a01b0390911681526020015b60405180910390f35b34801561011b57600080fd5b5061012f61012a3660046126fc565b6102e1565b005b61012f61013f366004612755565b6103b2565b34801561015057600080fd5b5061016461015f3660046127d3565b6105c4565b6040516101069998979695949392919061283c565b34801561018557600080fd5b5061012f6101943660046128e1565b6109bb565b3480156101a557600080fd5b5061012f6101b4366004612928565b610cac565b3480156101c557600080fd5b506101d96101d43660046126fc565b610e1b565b6040516101069190612976565b3480156101f257600080fd5b506102066102013660046126fc565b610f04565b6040516101069190612990565b34801561021f57600080fd5b5061012f61022e3660046128e1565b6114c5565b34801561023f57600080fd5b5061012f61024e3660046127d3565b61165b565b34801561025f57600080fd5b5061027361026e366004612ac1565b61182c565b6040516101069b9a99989796959493929190612aed565b34801561029657600080fd5b5061012f6102a5366004612ba1565b611ceb565b3480156102b657600080fd5b506102bf611feb565b6040516101069190612c97565b3480156102d857600080fd5b5061020661214a565b6006546001600160a01b031633146103145760405162461bcd60e51b815260040161030b90612d01565b60405180910390fd5b600060056000815461032590612d61565b91829055506000818152602081905260409020909150806103468482612dfd565b50806002846040516103589190612ebd565b908152604051908190036020019020806103728382612ed9565b509050507fdb74f4d32b97da9b3b9b907aa3fd5df938c018e13fe235d9883d0a0836c6bddb836040516103a59190612976565b60405180910390a1505050565b6000848152600160205260408120805490919082906103d090612d7a565b9050116103ef5760405162461bcd60e51b815260040161030b90612fb4565b8060030154341461043a5760405162461bcd60e51b815260206004820152601560248201527424b739bab33334b1b4b2b73a103830bcb6b2b73a1760591b604482015260640161030b565b600060056000815461044b90612d61565b918290555090504260006104628262093a80612fdf565b60008481526004602052604090209091508061047e8982612dfd565b506001810180546001600160a01b0319166001600160a01b038916179055600281018390556003810182905560048101849055604080518082019091526012815271105c1c1bda5b9d1b595b9d08189bdbdad95960721b602082015260058201906104e99082612dfd565b50600681016104f88782612dfd565b506007810189905560028501546040516001600160a01b03909116903480156108fc02916000818181858888f1935050505015801561053b573d6000803e3d6000fd5b507ffc655f22da9f929649987508eaee510a2d2599f8088088630e3501d2352fc7518888858588604051610573959493929190612ff8565b60405180910390a16040517f06d34ca1b4807a7bb8bd15c82e81319abadf326d7bf20efa0aea3fa2b2b93fab906105b19087908c908c908990613063565b60405180910390a1505050505050505050565b60608060008060608060006060806000600160008c8152602001908152602001600020905060008160000180546105fa90612d7a565b9050116106195760405162461bcd60e51b815260040161030b90612fb4565b80600001816001018260020160009054906101000a90046001600160a01b0316836003015484600401856006018660070154876008018860090188805461065f90612d7a565b80601f016020809104026020016040519081016040528092919081815260200182805461068b90612d7a565b80156106d85780601f106106ad576101008083540402835291602001916106d8565b820191906000526020600020905b8154815290600101906020018083116106bb57829003601f168201915b505050505098508780546106eb90612d7a565b80601f016020809104026020016040519081016040528092919081815260200182805461071790612d7a565b80156107645780601f1061073957610100808354040283529160200191610764565b820191906000526020600020905b81548152906001019060200180831161074757829003601f168201915b5050505050975084805461077790612d7a565b80601f01602080910402602001604051908101604052809291908181526020018280546107a390612d7a565b80156107f05780601f106107c5576101008083540402835291602001916107f0565b820191906000526020600020905b8154815290600101906020018083116107d357829003601f168201915b5050505050945083805461080390612d7a565b80601f016020809104026020016040519081016040528092919081815260200182805461082f90612d7a565b801561087c5780601f106108515761010080835404028352916020019161087c565b820191906000526020600020905b81548152906001019060200180831161085f57829003601f168201915b5050505050935081805461088f90612d7a565b80601f01602080910402602001604051908101604052809291908181526020018280546108bb90612d7a565b80156109085780601f106108dd57610100808354040283529160200191610908565b820191906000526020600020905b8154815290600101906020018083116108eb57829003601f168201915b5050505050915080805461091b90612d7a565b80601f016020809104026020016040519081016040528092919081815260200182805461094790612d7a565b80156109945780601f1061096957610100808354040283529160200191610994565b820191906000526020600020905b81548152906001019060200180831161097757829003601f168201915b50505050509050995099509950995099509950995099509950509193959799909294969850565b6000815111610a0c5760405162461bcd60e51b815260206004820152601b60248201527f5374617475732073686f756c64206e6f7420626520656d7074792e0000000000604482015260640161030b565b60008281526004602052604081208054610a2590612d7a565b905011610a445760405162461bcd60e51b815260040161030b90613111565b600082815260046020526040902060018101546001600160a01b03163314610aba5760405162461bcd60e51b815260206004820152602360248201527f4f6e6c792070617469656e742063616e206368616e67652074686520737461746044820152623ab99760e91b606482015260840161030b565b815160208301207f7af0fc0b0749151d05279eb2074ff2864d047721157e1e6e2ba54336096d108201610b9b57600781015460008181526001602052604090206005015414610b8f5760405162461bcd60e51b815260206004820152605560248201527f4f6e6c792074686520646f63746f722077686f20626f6f6b656420746865207060448201527f617469656e742063616e206368616e6765207468652073746174757320746f2060648201527413ba3932b0ba36b2b73a1033b7b4b7339037b7139760591b608482015260a40161030b565b60006003820155610c6c565b815160208301207fd4893265267b38c3a7b98cb25bf518db0a8014b1bde286d72ee379fdd0f262e401610c6c57600781015460008181526001602052604090206005015414610c655760405162461bcd60e51b815260206004820152604a60248201527f4f6e6c792074686520646f63746f722077686f20626f6f6b656420746865207060448201527f617469656e742063616e206368616e6765207468652073746174757320746f2060648201526913ba3932b0ba32b2139760b11b608482015260a40161030b565b4260038201555b60058101610c7a8382612dfd565b507f8047bff6aed6ab6848aceb3df75abf06546b2dea53f654425d67ac1a1115a31183836040516103a592919061313d565b600084815260016020526040812080549091908290610cca90612d7a565b905011610ce95760405162461bcd60e51b815260040161030b90612fb4565b600084815260046020526040812080549091908290610d0790612d7a565b905011610d265760405162461bcd60e51b815260040161030b90613111565b60405166151c99585d195960ca1b60208201526027016040516020818303038152906040528051906020012081600501604051602001610d6691906131c9565b6040516020818303038152906040528051906020012014610dc95760405162461bcd60e51b815260206004820152601860248201527f50617469656e74206e6f742074726561746564207965742e0000000000000000604482015260640161030b565b60048201610dd78482612dfd565b507f426f03b4118f5561a26f5614badb4829801fdbd81012b36da342f157884eac1d858585604051610e0b939291906131d5565b60405180910390a1505050505050565b60606000600383604051610e2f9190612ebd565b908152602001604051809103902090506000816000018054610e5090612d7a565b905011610e6f5760405162461bcd60e51b815260040161030b90612fb4565b806004018054610e7e90612d7a565b80601f0160208091040260200160405190810160405280929190818152602001828054610eaa90612d7a565b8015610ef75780601f10610ecc57610100808354040283529160200191610ef7565b820191906000526020600020905b815481529060010190602001808311610eda57829003601f168201915b5050505050915050919050565b60606000600283604051610f189190612ebd565b908152602001604051809103902090506000816000018054610f3990612d7a565b905011610f7e5760405162461bcd60e51b815260206004820152601360248201527221b0ba32b3b7b93c903737ba103337bab7321760691b604482015260640161030b565b60008060055467ffffffffffffffff811115610f9c57610f9c612659565b604051908082528060200260200182016040528015610fd557816020015b610fc26125a7565b815260200190600190039081610fba5790505b50905060015b600554811161140e57600060016000838152602001908152602001600020905086805190602001208160010160405161101491906131c9565b6040518091039020036113fb57806040518061014001604052908160008201805461103e90612d7a565b80601f016020809104026020016040519081016040528092919081815260200182805461106a90612d7a565b80156110b75780601f1061108c576101008083540402835291602001916110b7565b820191906000526020600020905b81548152906001019060200180831161109a57829003601f168201915b505050505081526020016001820180546110d090612d7a565b80601f01602080910402602001604051908101604052809291908181526020018280546110fc90612d7a565b80156111495780601f1061111e57610100808354040283529160200191611149565b820191906000526020600020905b81548152906001019060200180831161112c57829003601f168201915b505050918352505060028201546001600160a01b031660208201526003820154604082015260048201805460609092019161118390612d7a565b80601f01602080910402602001604051908101604052809291908181526020018280546111af90612d7a565b80156111fc5780601f106111d1576101008083540402835291602001916111fc565b820191906000526020600020905b8154815290600101906020018083116111df57829003601f168201915b505050505081526020016005820154815260200160068201805461121f90612d7a565b80601f016020809104026020016040519081016040528092919081815260200182805461124b90612d7a565b80156112985780601f1061126d57610100808354040283529160200191611298565b820191906000526020600020905b81548152906001019060200180831161127b57829003601f168201915b50505050508152602001600782015481526020016008820180546112bb90612d7a565b80601f01602080910402602001604051908101604052809291908181526020018280546112e790612d7a565b80156113345780601f1061130957610100808354040283529160200191611334565b820191906000526020600020905b81548152906001019060200180831161131757829003601f168201915b5050505050815260200160098201805461134d90612d7a565b80601f016020809104026020016040519081016040528092919081815260200182805461137990612d7a565b80156113c65780601f1061139b576101008083540402835291602001916113c6565b820191906000526020600020905b8154815290600101906020018083116113a957829003601f168201915b5050505050815250508385815181106113e1576113e16131fd565b602002602001018190525083806113f790612d61565b9450505b508061140681612d61565b915050610fdb565b5060008267ffffffffffffffff81111561142a5761142a612659565b60405190808252806020026020018201604052801561146357816020015b6114506125a7565b8152602001906001900390816114485790505b50905060005b838110156114bb57828181518110611483576114836131fd565b602002602001015182828151811061149d5761149d6131fd565b602002602001018190525080806114b390612d61565b915050611469565b5095945050505050565b60008151116115275760405162461bcd60e51b815260206004820152602860248201527f4d65646963616c207265706f727420686173682073686f756c64206e6f742062604482015267329032b6b83a3c9760c11b606482015260840161030b565b6000828152600460205260408120805461154090612d7a565b90501161155f5760405162461bcd60e51b815260040161030b90613111565b600082815260046020908152604080832060078101548452600190925290912060028101546001600160a01b0316331461160d5760405162461bcd60e51b815260206004820152604360248201527f4f6e6c792074686520646f63746f722077686f20626f6f6b656420746865207060448201527f617469656e742063616e2073656e6420746865206d65646963616c207265706f606482015262393a1760e91b608482015260a40161030b565b6008820161161b8482612dfd565b507faf0fabe0c301ee24295330418b35d279f01558104c1d4bf32be02e7435295473848460405161164d92919061313d565b60405180910390a150505050565b6006546001600160a01b031633146116855760405162461bcd60e51b815260040161030b90612d01565b6000818152600160205260408120805490919082906116a390612d7a565b9050116116c25760405162461bcd60e51b815260040161030b90612fb4565b6040516003906116d39083906131c9565b90815260405190819003602001902060006116ee8282612603565b6116fc600183016000612603565b6002820180546001600160a01b0319169055600060038301819055611725906004840190612603565b600582016000905560068201600061173d9190612603565b60078201600090556008820160006117559190612603565b611763600983016000612603565b505060008281526001602052604081209061177e8282612603565b61178c600183016000612603565b6002820180546001600160a01b03191690556000600383018190556117b5906004840190612603565b60058201600090556006820160006117cd9190612603565b60078201600090556008820160006117e59190612603565b6117f3600983016000612603565b50506040518281527f6898979f788adf89740d6df89b38b26a388057f65f69f4aca04ddaf778829cfc9060200160405180910390a15050565b606060008060006060806000606080600060606000600460008f8152602001908152602001600020600001805461186290612d7a565b9050116118815760405162461bcd60e51b815260040161030b90613111565b60008d8152600460205260409020600101546001600160a01b038d81169116146118ed5760405162461bcd60e51b815260206004820152601f60248201527f496e76616c69642070617469656e742077616c6c657420616464726573732e00604482015260640161030b565b60008d81526004602090815260408083206007810154845260019092528220805491929091829061191d90612d7a565b90501161193c5760405162461bcd60e51b815260040161030b90612fb4565b8054819061194990612d7a565b80601f016020809104026020016040519081016040528092919081815260200182805461197590612d7a565b80156119c25780601f10611997576101008083540402835291602001916119c2565b820191906000526020600020905b8154815290600101906020018083116119a557829003601f168201915b505050505095508060010180546119d890612d7a565b80601f0160208091040260200160405190810160405280929190818152602001828054611a0490612d7a565b8015611a515780601f10611a2657610100808354040283529160200191611a51565b820191906000526020600020905b815481529060010190602001808311611a3457829003601f168201915b5050505060028301546006840180549398506001600160a01b03909116965091611a7b9150612d7a565b80601f0160208091040260200160405190810160405280929190818152602001828054611aa790612d7a565b8015611af45780601f10611ac957610100808354040283529160200191611af4565b820191906000526020600020905b815481529060010190602001808311611ad757829003601f168201915b5050505050925081600001826002015483600301548460040154856005018660060186600501548c8c8c8c8a8054611b2b90612d7a565b80601f0160208091040260200160405190810160405280929190818152602001828054611b5790612d7a565b8015611ba45780601f10611b7957610100808354040283529160200191611ba4565b820191906000526020600020905b815481529060010190602001808311611b8757829003601f168201915b50505050509a50868054611bb790612d7a565b80601f0160208091040260200160405190810160405280929190818152602001828054611be390612d7a565b8015611c305780601f10611c0557610100808354040283529160200191611c30565b820191906000526020600020905b815481529060010190602001808311611c1357829003601f168201915b50505050509650858054611c4390612d7a565b80601f0160208091040260200160405190810160405280929190818152602001828054611c6f90612d7a565b8015611cbc5780601f10611c9157610100808354040283529160200191611cbc565b820191906000526020600020905b815481529060010190602001808311611c9f57829003601f168201915b505050505095509c509c509c509c509c509c509c509c509c509c509c5050509295989b509295989b9093969950565b6006546001600160a01b03163314611d155760405162461bcd60e51b815260040161030b90612d01565b60008511611d655760405162461bcd60e51b815260206004820152601d60248201527f4665652073686f756c642062652067726561746572207468616e20302e000000604482015260640161030b565b6000885111611db65760405162461bcd60e51b815260206004820181905260248201527f446f63746f72206e616d652073686f756c64206e6f7420626520656d7074792e604482015260640161030b565b6000600288604051611dc89190612ebd565b908152602001604051809103902090506000816000018054611de990612d7a565b905011611e2e5760405162461bcd60e51b815260206004820152601360248201527221b0ba32b3b7b93c903737ba103337bab7321760691b604482015260640161030b565b6000600560008154611e3f90612d61565b9182905550600081815260016020526040902090915080611e608c82612dfd565b5060018101611e6f8b82612dfd565b506002810180546001600160a01b0319166001600160a01b038b16179055600381018890556005810182905560068101611ea98882612dfd565b506007810186905560088101611ebf8682612dfd565b5060098101611ece8582612dfd565b508060038c604051611ee09190612ebd565b90815260405190819003602001902080611efa8382612ed9565b50600181810190611f0d90840182612ed9565b5060028281015490820180546001600160a01b0319166001600160a01b0390921691909117905560038083015490820155600480820190611f5090840182612ed9565b506005820154816005015560068201816006019081611f6f9190612ed9565b506007820154816007015560088201816008019081611f8e9190612ed9565b50600981810190611fa190840182612ed9565b509050507f6423bf2e1ec36e40688fd484d44ac477d30dc22f449ee17bcb7d4321724c706e8b83604051611fd6929190613213565b60405180910390a15050505050505050505050565b6060600060055467ffffffffffffffff81111561200a5761200a612659565b60405190808252806020026020018201604052801561204a57816020015b6040805160208101909152606081528152602001906001900390816120285790505b50905060015b60055481116121445760008082815260200190815260200160002060405180602001604052908160008201805461208690612d7a565b80601f01602080910402602001604051908101604052809291908181526020018280546120b290612d7a565b80156120ff5780601f106120d4576101008083540402835291602001916120ff565b820191906000526020600020905b8154815290600101906020018083116120e257829003601f168201915b505050505081525050826001836121169190613235565b81518110612126576121266131fd565b6020026020010181905250808061213c90612d61565b915050612050565b50919050565b6060600060055467ffffffffffffffff81111561216957612169612659565b6040519080825280602002602001820160405280156121a257816020015b61218f6125a7565b8152602001906001900390816121875790505b50905060015b60055481116121445760008181526001602052604090819020815161014081019092528054829082906121da90612d7a565b80601f016020809104026020016040519081016040528092919081815260200182805461220690612d7a565b80156122535780601f1061222857610100808354040283529160200191612253565b820191906000526020600020905b81548152906001019060200180831161223657829003601f168201915b5050505050815260200160018201805461226c90612d7a565b80601f016020809104026020016040519081016040528092919081815260200182805461229890612d7a565b80156122e55780601f106122ba576101008083540402835291602001916122e5565b820191906000526020600020905b8154815290600101906020018083116122c857829003601f168201915b505050918352505060028201546001600160a01b031660208201526003820154604082015260048201805460609092019161231f90612d7a565b80601f016020809104026020016040519081016040528092919081815260200182805461234b90612d7a565b80156123985780601f1061236d57610100808354040283529160200191612398565b820191906000526020600020905b81548152906001019060200180831161237b57829003601f168201915b50505050508152602001600582015481526020016006820180546123bb90612d7a565b80601f01602080910402602001604051908101604052809291908181526020018280546123e790612d7a565b80156124345780601f1061240957610100808354040283529160200191612434565b820191906000526020600020905b81548152906001019060200180831161241757829003601f168201915b505050505081526020016007820154815260200160088201805461245790612d7a565b80601f016020809104026020016040519081016040528092919081815260200182805461248390612d7a565b80156124d05780601f106124a5576101008083540402835291602001916124d0565b820191906000526020600020905b8154815290600101906020018083116124b357829003601f168201915b505050505081526020016009820180546124e990612d7a565b80601f016020809104026020016040519081016040528092919081815260200182805461251590612d7a565b80156125625780601f1061253757610100808354040283529160200191612562565b820191906000526020600020905b81548152906001019060200180831161254557829003601f168201915b505050505081525050826001836125799190613235565b81518110612589576125896131fd565b6020026020010181905250808061259f90612d61565b9150506121a8565b604051806101400160405280606081526020016060815260200160006001600160a01b03168152602001600081526020016060815260200160008152602001606081526020016000815260200160608152602001606081525090565b50805461260f90612d7a565b6000825580601f1061261f575050565b601f01602090049060005260206000209081019061263d9190612640565b50565b5b808211156126555760008155600101612641565b5090565b634e487b7160e01b600052604160045260246000fd5b600082601f83011261268057600080fd5b813567ffffffffffffffff8082111561269b5761269b612659565b604051601f8301601f19908116603f011681019082821181831017156126c3576126c3612659565b816040528381528660208588010111156126dc57600080fd5b836020870160208301376000602085830101528094505050505092915050565b60006020828403121561270e57600080fd5b813567ffffffffffffffff81111561272557600080fd5b6127318482850161266f565b949350505050565b80356001600160a01b038116811461275057600080fd5b919050565b6000806000806080858703121561276b57600080fd5b84359350602085013567ffffffffffffffff8082111561278a57600080fd5b6127968883890161266f565b94506127a460408801612739565b935060608701359150808211156127ba57600080fd5b506127c78782880161266f565b91505092959194509250565b6000602082840312156127e557600080fd5b5035919050565b60005b838110156128075781810151838201526020016127ef565b50506000910152565b600081518084526128288160208601602086016127ec565b601f01601f19169290920160200192915050565b60006101208083526128508184018d612810565b90508281036020840152612864818c612810565b6001600160a01b038b166040850152606084018a90528381036080850152905061288e8189612810565b905082810360a08401526128a28188612810565b90508560c084015282810360e08401526128bc8186612810565b90508281036101008401526128d18185612810565b9c9b505050505050505050505050565b600080604083850312156128f457600080fd5b82359150602083013567ffffffffffffffff81111561291257600080fd5b61291e8582860161266f565b9150509250929050565b6000806000806080858703121561293e57600080fd5b843593506020850135925060408501359150606085013567ffffffffffffffff81111561296a57600080fd5b6127c78782880161266f565b6020815260006129896020830184612810565b9392505050565b60006020808301818452808551808352604092508286019150828160051b87010184880160005b83811015612ab357603f19898403018552815161014081518186526129de82870182612810565b915050888201518582038a8701526129f68282612810565b91505087820151612a11898701826001600160a01b03169052565b506060828101519086015260808083015186830382880152612a338382612810565b9250505060a080830151818701525060c08083015186830382880152612a598382612810565b9250505060e08083015181870152506101008083015186830382880152612a808382612810565b925050506101208083015192508582038187015250612a9f8183612810565b9689019694505050908601906001016129b7565b509098975050505050505050565b60008060408385031215612ad457600080fd5b82359150612ae460208401612739565b90509250929050565b6000610160808352612b018184018f612810565b90508c60208401528b60408401528a60608401528281036080840152612b27818b612810565b905082810360a0840152612b3b818a612810565b90508760c084015282810360e0840152612b558188612810565b9050828103610100840152612b6a8187612810565b6001600160a01b0386166101208501528381036101408501529050612b8f8185612810565b9e9d5050505050505050505050505050565b600080600080600080600080610100898b031215612bbe57600080fd5b883567ffffffffffffffff80821115612bd657600080fd5b612be28c838d0161266f565b995060208b0135915080821115612bf857600080fd5b612c048c838d0161266f565b9850612c1260408c01612739565b975060608b0135965060808b0135915080821115612c2f57600080fd5b612c3b8c838d0161266f565b955060a08b0135945060c08b0135915080821115612c5857600080fd5b612c648c838d0161266f565b935060e08b0135915080821115612c7a57600080fd5b50612c878b828c0161266f565b9150509295985092959890939650565b6000602080830181845280855180835260408601915060408160051b870101925083870160005b82811015612cf457878503603f19018452815151868652612ce187870182612810565b9550509285019290850190600101612cbe565b5092979650505050505050565b6020808252602a908201527f4f6e6c7920636f6e7472616374206f776e65722063616e2063616c6c207468696040820152693990333ab731ba34b7b760b11b606082015260800190565b634e487b7160e01b600052601160045260246000fd5b600060018201612d7357612d73612d4b565b5060010190565b600181811c90821680612d8e57607f821691505b60208210810361214457634e487b7160e01b600052602260045260246000fd5b601f821115612df857600081815260208120601f850160051c81016020861015612dd55750805b601f850160051c820191505b81811015612df457828155600101612de1565b5050505b505050565b815167ffffffffffffffff811115612e1757612e17612659565b612e2b81612e258454612d7a565b84612dae565b602080601f831160018114612e605760008415612e485750858301515b600019600386901b1c1916600185901b178555612df4565b600085815260208120601f198616915b82811015612e8f57888601518255948401946001909101908401612e70565b5085821015612ead5787850151600019600388901b60f8161c191681555b5050505050600190811b01905550565b60008251612ecf8184602087016127ec565b9190910192915050565b818103612ee4575050565b612eee8254612d7a565b67ffffffffffffffff811115612f0657612f06612659565b612f1481612e258454612d7a565b6000601f821160018114612f485760008315612f305750848201545b600019600385901b1c1916600184901b178455612fad565b600085815260209020601f19841690600086815260209020845b83811015612f825782860154825560019586019590910190602001612f62565b5085831015612fa05781850154600019600388901b60f8161c191681555b50505060018360011b0184555b5050505050565b6020808252601190820152702237b1ba37b9103737ba103337bab7321760791b604082015260600190565b80820180821115612ff257612ff2612d4b565b92915050565b60c08152600061300b60c0830188612810565b60018060a01b038716602084015285604084015284606084015283608084015282810360a08401526012815271105c1c1bda5b9d1b595b9d08189bdbdad95960721b6020820152604081019150509695505050505050565b60808152600080865461307581612d7a565b80608086015260a060018084166000811461309757600181146130b1576130e2565b60ff1985168884015283151560051b8801830195506130e2565b8b60005260208060002060005b868110156130d95781548b82018701529084019082016130be565b8a018501975050505b505050505085602084015282810360408401526130ff8186612810565b91505082606083015295945050505050565b6020808252601290820152712830ba34b2b73a103737ba103337bab7321760711b604082015260600190565b8281526040602082015260006127316040830184612810565b6000815461316381612d7a565b6001828116801561317b5760018114613190576131bf565b60ff19841687528215158302870194506131bf565b8560005260208060002060005b858110156131b65781548a82015290840190820161319d565b50505082870194505b5050505092915050565b60006129898284613156565b8381528260208201526060604082015260006131f46060830184612810565b95945050505050565b634e487b7160e01b600052603260045260246000fd5b6040815260006132266040830185612810565b90508260208301529392505050565b81810381811115612ff257612ff2612d4b56fea26469706673582212209b6a7d22e1c9f005514c91780d90dcb49ed6c9116933403ec8842c8f762f23f864736f6c63430008110033",
  "linkReferences": {},
  "deployedLinkReferences": {}
}